:10000000007C0020F14800001D4900001D4900004F
:100010001D4900001D4900001D4900001D49000048
:100020001D4900001D4900001D4900001D49000038
:100030001D4900001D4900001D4900001D49000028
:10004000498B00001D4900001D4900001D490000AA
:100050001D4900001D4900001D4900001D49000008
:100060001D4900001D49000051930000CD450000CE
:100070004D4600001D4900001D4900001D490000BB
:100080001D4900001D490000BD2800001D49000059
:100090001D4900001D4900001D4900001D490000C8
:1000A0001D4900001D4900001D4900001D490000B8
:1000B0001D4900008D8500001D4900001D490000FC
:1000C0001D4900001D49000010B5054C237833B9C7
:1000D000044B13B10448AFF300800123237010BD1B
:1000E0009803002000000000B0AA000008B5034BF0
:1000F0001BB103490348AFF3008008BD00000000B6
:100100009C030020B0AA0000154B002B08BF134B26
:100110009D46A3F5803A00218B460F461348144AAA
:10012000121A0AF0A5FA0F4B002B00D098470E4B7D
:10013000002B00D098470020002104000D000D483E
:10014000002802D00C48AFF300800AF04FFA2000DC
:10015000290002F033F80AF035FA00BF0000080069
:10016000007C002000000000000000009803002038
:10017000C8090020000000000000000000B585B0A4
:10018000039002910F4B1B7A002B13D100211020FA
:1001900002F00EFE0B4B01221A72039808F03AF996
:1001A000084B5A6800230093074B0021039807F07F
:1001B00091FF03E00121102002F0FAFD00BF05B01D
:1001C0005DF804FB740400207D01000000B583B0DD
:1001D00000238DF807309DF80730132B1BD89DF8AE
:1001E0000730122B0BD09DF80730132B07D09DF84A
:1001F00007300A2B03D09DF807300C2B05D19DF852
:1002000007300621184600F0F1F89DF80730013359
:100210008DF80730DFE7034B01221A7000BF03B0EF
:100220005DF804FB6A040020B0B588B002AF396005
:1002300011461A460346FB710B46BB7113467B7190
:100240006B461D463B68DAB2474B1A703B68B3F108
:10025000FF3F1FD0FB7998B2BB799BB20422019279
:1002600000930123414A404902F0DCFE0346FB743F
:10027000FB7CFF2B04D13E493E4803F07CFA6EE044
:100280003D4B1B68002B08D03B4B1B68184602F007
:1002900046FE02E0344B00221A70FB7998B2BB791B
:1002A0009BB20422019200930123304A2E4902F0AE
:1002B000B9FE0346FB74FB7CFF2B04D12C492D486F
:1002C00003F059FA4BE0BB795C1EFC602346013316
:1002D00018464FF000014FF000024FF00003CB0032
:1002E00043EA5073C2002346013318464FF0000121
:1002F0004FF000024FF00003CB0043EA5073C200FE
:10030000234601330733DB08DB00ADEB030D02AB03
:100310000033BB60FB795B10DAB2BB681A703B68D4
:10032000DAB2BB685A7000237B61BB797A699A4262
:100330000BDA7B6902330D497A690A441178BA688D
:10034000D1547B6901337B61EFE7BB790233DAB2C9
:10035000BB687721074803F0F6F9AD4600E0AD46EB
:100360001837BD46B0BD00BF540400206004002013
:1003700094A90000B00400206C04002000B583B0F4
:1003800003468DF807300B468DF8063013468DF87E
:1003900005309DF80730124AD25C9DF806301340B4
:1003A0008DF806309DF80530002B07D19DF80730F9
:1003B0000C4AD35C9DF806209A420DD09DF8062089
:1003C0009DF807301946084803F0A9F99DF8073051
:1003D00004499DF80620CA5400BF03B05DF804FB31
:1003E000E4030020DC030020B004002000B583B04B
:1003F000034600918DF807309DF8073019469C4858
:1004000003F040FA03467F2B0CBF01230023DBB22D
:10041000002B40F01B819DF807300F2B0BD8009B61
:10042000022B01D1012200E000229DF80730114685
:10043000184600F053F99DF80730132B34D8009B71
:10044000002B02D0009B0B2B16D19DF80730DB0848
:10045000D8B20246874B9B5C5AB29DF8073003F036
:100460000703012101FA03F35BB213435BB20246B7
:10047000D9B2804B995417E09DF80730DB08D8B209
:1004800002467C4B9B5C5AB29DF8073003F0070391
:10049000012101FA03F35BB2DB435BB213405BB2B1
:1004A0000246D9B2734B99549DF807300022194681
:1004B0006F4803F03DFA009B0B2B00F2C28001A2B3
:1004C00052F823F02505000089050000F50400001E
:1004D000E10500004306000043060000130600008B
:1004E00043060000430600004306000051060000DA
:1004F000550500009DF807300F2B00F2AB809DF8EA
:100500000730132B06D89DF8073000220221184629
:1005100002F000FC9DF8073002221946544803F00F
:10052000BFF997E09DF80730132B00F295809DF8F6
:100530000730072B06D19DF807300022012118460D
:1005400002F0E8FB9DF8073001221946484803F005
:10055000A7F981E09DF80730132B7FD89DF807306D
:1005600001220221184602F0D5FB9DF807300B222C
:1005700019463F4803F094F99DF8073001221946C7
:100580003B4803F0D5F969E09DF80730132B67D895
:100590009DF807301946364803F074F90346032BDB
:1005A0000CBF01230023DBB2002B0AD09DF80730DB
:1005B000184602F0E7F99DF807300021184602F0CE
:1005C000F7FB9DF8073000220421184602F0A2FB39
:1005D0009DF8073001221946254803F061F93FE0F4
:1005E0009DF80730132B3DD89DF8073000220421D9
:1005F000184602F08FFB9DF80730032219461C486D
:1006000003F04EF99DF807300021184602F0EAFB8E
:1006100028E09DF80730122B0BD09DF80730132BE4
:1006200007D09DF807300A2B03D09DF807300C2B1C
:100630001AD19DF80730062219460D4803F030F90B
:1006400012E00D490A4803F096F80EE000BF0CE0F6
:1006500000BF0AE000BF08E000BF06E000BF04E002
:1006600000BF02E000BF00E000BF03B05DF804FB84
:10067000B0040020E4030020B0A9000000B583B05E
:10068000034600918DF807309DF80730132B1FD8D3
:100690009DF80730132B1BD89DF8073019460E48DC
:1006A00003F0F0F80346012B0CBF01230023DBB25B
:1006B000002B0DD09DF80730009A1946064803F02C
:1006C00037F99DF80730009A1146184602F070FB82
:1006D00000BF03B05DF804FBB004002000B583B098
:1006E000034600918DF807309DF80730132B2BD867
:1006F000009B002B0BD19DF80730012202FA03F377
:10070000DA43134B1B681340114A13601CE09DF839
:10071000073001229A400E4B1B6813430C4A1360AA
:100720000C4B1B7883F00103DBB2002B0CD09DF83F
:100730000730184602F0A8FB03461A469DF807301A
:100740001946054802F0D7FF00BF03B05DF804FB6F
:10075000D003002070040020B004002000B585B054
:10076000034600918DF807309DF80730052B00F205
:1007700012819DF80730009AD1B2894AD154009B6A
:10078000002B00F008819DF80730864AD25C9DF866
:1007900007308DF80F3013468DF80E3000238DF89A
:1007A0000D309DF80F30DB008DF80C309DF80C30CB
:1007B000132B0FD89DF80E3003F00103002B09D046
:1007C0009DF80C30184602F0D9FA0346002B01D0F0
:1007D000012300E00023002B05D09DF80D3043F0ED
:1007E00001038DF80D309DF80C30122B10D89DF8B8
:1007F0000E3003F00203002B0AD09DF80C300133B9
:10080000184602F0BBFA0346002B01D0012300E09A
:100810000023002B05D09DF80D3043F002038DF826
:100820000D309DF80C30112B10D89DF80E3003F0D0
:100830000403002B0AD09DF80C300233184602F056
:100840009DFA0346002B01D0012300E00023002B7A
:1008500005D09DF80D3043F004038DF80D309DF860
:100860000C30102B10D89DF80E3003F00803002B2D
:100870000AD09DF80C300333184602F07FFA034685
:10088000002B01D0012300E00023002B05D09DF8B0
:100890000D3043F008038DF80D309DF80C300F2B10
:1008A00010D89DF80E3003F01003002B0AD09DF8ED
:1008B0000C300433184602F061FA0346002B01D0D5
:1008C000012300E00023002B05D09DF80D3043F0FC
:1008D00010038DF80D309DF80C300E2B10D89DF8BC
:1008E0000E3003F02003002B0AD09DF80C300533A6
:1008F000184602F043FA0346002B01D0012300E022
:100900000023002B05D09DF80D3043F020038DF817
:100910000D309DF80C300D2B10D89DF80E3003F0E3
:100920004003002B0AD09DF80C300633184602F025
:1009300025FA0346002B01D0012300E00023002B01
:1009400005D09DF80D3043F040038DF80D309DF833
:100950000C300C2B0ED89DF90E30002B0ADA9DF8C6
:100960000C300733184602F009FA0346002B01D079
:10097000012300E00023002B05D09DF80D3063F02B
:100980007F038DF80D309DF80D109DF80730012282
:100990001846FFF7F3FC00BF05B05DF804FB00BF8D
:1009A000D4030020E403002000B583B00346009187
:1009B0008DF807309DF80730132B1CD89DF80730B1
:1009C00019460F4802F05EFF0346032B13D19DF832
:1009D0000730132B0ED89DF80730009AD2B211467B
:1009E000184602F0FFF99DF80730009A19460448AE
:1009F00002F09EFF00BF00BF03B05DF804FB00BF24
:100A0000B004002000B585B0034600918DF8073092
:100A100001238DF80D3000238DF80C309DF8073040
:100A2000052B00F294809DF807300133DBB2DB0028
:100A30008DF80E309DF80E30142B02D914238DF84A
:100A40000E309DF80730DB008DF80F309DF80F2039
:100A50009DF80E309A427AD29DF80F30132B6BD846
:100A60009DF80F3019463C4802F00CFF0346012B5D
:100A700008D09DF80F301946374802F003FF0346AF
:100A8000002B01D1012300E00023002B54D0009B58
:100A9000DAB29DF80D301340DBB2002B01D00123F8
:100AA00000E000238DF80B309DF80F3019462A48DE
:100AB00002F0E8FE0346012B0CBF01230023DBB24A
:100AC000002B07D09DF80C209DF80D3013438DF8B6
:100AD0000C3021E09DF80F3019461F4802F0D2FE7D
:100AE0000346002B0ED19DF80B30012B0AD19DF847
:100AF0000F301946184802F00DFF0346012B01D0B4
:100B0000012300E00023002B06D09DF80F300122C6
:100B10000221184602F0FEF89DF80B209DF80F30D8
:100B200019460D4802F004FF9DF80F309DF80B2088
:100B30001146184602F03CF99DF80D305B008DF827
:100B40000D309DF80F3001338DF80F307EE700BF78
:100B500005B05DF804FB00BFB004002000B58DB007
:100B6000034602928DF80F300B468DF80E309DF83B
:100B70000F300B2B00F015840B2BC0F26C847A2BFA
:100B800000F36984602BC0F26684603B1A2B00F28C
:100B9000628401A252F823F0571400005714000099
:100BA0005714000057140000571400005714000099
:100BB000571400005714000057140000571300008A
:100BC00057140000291100005714000061120000A2
:100BD00057140000DD1000005714000057140000E7
:100BE0005714000057140000571400005714000059
:100BF000050C0000571400003310000057140000CB
:100C0000A3100000029B01331B7803F018038DF83A
:100C10001630029B01331B7803F02003002B05D014
:100C2000C049C14802F0A7FD00F01EBC029B1B7822
:100C30005B008DF81530029B01331B7803F04003F5
:100C4000002B03D000238DF82F3002E001238DF814
:100C50002F309DF81630182B00F2E98101A252F8CE
:100C600023F000BFC90C00002F1000002F1000005F
:100C70002F1000002F1000002F1000002F10000078
:100C80002F100000770D00002F1000002F10000023
:100C90002F1000002F1000002F1000002F10000058
:100CA0002F100000DB0D00002F1000002F1000009F
:100CB0002F1000002F1000002F1000002F10000038
:100CC0002F100000C50E000000238DF827309DF87E
:100CD00027209DF80E30043BD90F0B445B109A423D
:100CE0001BDA9DF827305B000433029A134419780D
:100CF0009DF827305B000533029A13441B78DB0113
:100D0000DAB29DF827300A44D1B2884AD1549DF80E
:100D1000273001338DF82730D9E7029B02331A7848
:100D2000029B03331B78DB01DBB21344DAB2804B46
:100D30001A709DF8153098B29DF80E30043BDA0F0A
:100D400013445B109BB20822019200930123774A5F
:100D5000774902F067F903468DF814309DF8143096
:100D6000FF2B04D17349704802F005FD7CE30A2093
:100D700002F0D5F85CE19DF80E30062B15D1029BF0
:100D800002331B781A46029B03331B78DB011344A2
:100D90000A93029B04331A78029B05331B78DB010C
:100DA000DBB213448DF82E300DE04FF0FF330A9381
:100DB000029B02331A78029B03331B78DB01DBB200
:100DC00013448DF82E309DF82F309DF82E209DF87D
:100DD00015000A99FFF728FA2AE1574B93F90030DA
:100DE000062B04DD5549504802F0C5FC20E19DF872
:100DF0000E30062B16D1029B02331B781A46029B3B
:100E000003331B78DB0113440A93029B04331A78E3
:100E1000029B05331B78DB01DBB21344DAB2434B90
:100E20001A700EE04FF0FF330A93029B02331A78D8
:100E3000029B03331B78DB01DBB21344DAB23B4B7A
:100E40001A703D4B93F90030DBB20133DBB25AB27A
:100E5000394B1A70384B93F900301946384A0B4613
:100E60005B000B449B0013449DF815201A70324B15
:100E700093F900301946324A0B465B000B449B0045
:100E8000134404330A9A1A602B4B93F90030194625
:100E9000264B18782A4A0B465B000B449B001344F0
:100EA000083302461A70244B93F900301946244A3D
:100EB0000B465B000B449B00134409339DF82F2025
:100EC0001A70B5E01C4B93F90030002B03DC1A4B71
:100ED000FF221A70ACE000238DF8263000238DF835
:100EE0002530154B93F900301A469DF825309A426B
:100EF00028DB9DF82520124913465B0013449B0014
:100F00000B441B789DF815209A4204D19DF825309A
:100F10008DF8263016E09DF8253001338DF8253008
:100F2000DFE700BFC4A90000B00400206004002077
:100F300054040020E4A900000B00002000AA0000D7
:100F4000F40300209DF826308DF82430BC4B93F933
:100F500000301A469DF824309A425EDB9DF824301A
:100F6000072B54D89DF82430591C9DF82420B548EF
:100F70000B465B000B449B0003441878B1491346B1
:100F80005B0013449B000B4402461A709DF824300A
:100F9000591C9DF82420AB480B465B000B449B007A
:100FA000034404331968A74813465B0013449B00AD
:100FB0000344043319609DF82430591C9DF8242003
:100FC000A0480B465B000B449B0003440833187891
:100FD0009C4913465B0013449B000B4408330246B4
:100FE0001A709DF82430591C9DF8242095480B4612
:100FF0005B000B449B000344093318789149134666
:101000005B0013449B000B44093302461A709DF8A1
:10101000243001338DF8243098E7894B93F9003060
:10102000DBB2013BDBB25AB2854B1A7000E000BF65
:101030001AE2029B1B781A46029B01331B78DB01E4
:10104000134406939DF80E30012B05D9069B002B07
:1010500002D07D4A069B13609DF80E30022B12D9F8
:10106000029B02331A78029B03331B78DB01DBB24D
:1010700013448DF8173001F0CDFF9DF81730184656
:1010800001F05CFF02E0012001F058FF6F4B1B787C
:1010900083F00103DBB2002B00F0DF81FFF796F84D
:1010A000DBE19DF80E30012B13D9029B1B781A4609
:1010B000029B01331B78DB0113441A46644B1A6010
:1010C000634B1B68002B40F0CA81614B01221A6000
:1010D000C5E16049604802F04EFBC0E19DF80E306A
:1010E000012B40F2BE81029B01331B7808939DF8CF
:1010F0000E30022B06D9029B02331B78DB01089AC3
:10110000134308939DF80E30032B06D9029B03333B
:101110001B789B03089A13430893029B1B7808993A
:101120001846FFF741FC9CE1F0214B4802F031FBEF
:101130006C21494802F02DFB00238DF81F309DF8EB
:101140001F30132B76D89DF81F30444A5B0113449F
:1011500004331B68132B17D800213F4802F019FBFA
:1011600001213D4802F015FB0B213B4802F011FB29
:101170000121394802F00DFB0121374802F009FB3B
:101180000121354802F005FB9DF81F30334A5B0111
:10119000134408331B78002B07D002212E4802F09D
:1011A000F8FA0A212C4802F0F4FA9DF81F302B4A75
:1011B0005B01134410331B68B3F1113F07D00321C7
:1011C000254802F0E6FA0821234802F0E2FA9DF8E9
:1011D0001F30224A5B01134404331B68132B07D8CA
:1011E00004211D4802F0D5FA0E211B4802F0D1FA65
:1011F0009DF81F30122B0BD09DF81F30132B07D0FA
:101200009DF81F300A2B03D09DF81F300C2B07D1FF
:101210000621114802F0BDFA01210F4802F0B9FA87
:101220007F210D4802F0B5FA9DF81F3001338DF88B
:101230001F3084E7F721084802F0ABFA14E100BF41
:101240000B000020F40300206C0400206A0400203E
:101250000000002014AA0000B0040020700000204C
:101260009DF80E30002B00F0FE80029B1B788DF85D
:101270001330F0217E4802F08CFA6E217C4802F097
:1012800088FA9DF813301946794802F082FA9DF8E1
:101290001330132B5AD89DF813301946744802F0B6
:1012A000F1FA03461946724802F073FA9DF81330BA
:1012B00019466F4802F02EFB0346DBB203F07F03B2
:1012C000DBB219466A4802F064FA9DF813301946F9
:1012D000674802F01FFB02464FF680731340002B55
:1012E00014BF01230023DBB2002B0FD09DF8133075
:1012F00019465F4802F00EFB0346DB11DBB203F038
:101300007F03DBB219465A4802F043FA9DF81330C6
:101310001946574802F0FEFA034603F44043002BF7
:1013200014BF01230023DBB2002B0FD09DF8133034
:1013300019464F4802F0EEFA03469B13DBB203F066
:101340007F03DBB219464A4802F023FAF7214848E6
:1013500002F01FFA87E0F021454802F01AFA6A21EC
:10136000434802F016FA00238DF81E309DF81E3017
:10137000132B11D89DF81E300F2B02D89DF81E306C
:1013800000E07F2319463A4802F003FA9DF81E3028
:1013900001338DF81E30E9E7F721354802F0F9F9FD
:1013A00062E0029B1B78002B02D0012B07D051E09A
:1013B000304B06220B212E4802F0C5F94AE09DF879
:1013C0000E30052B45D9029B01331B781A464FF48A
:1013D0007A7303FB02F3284A1360029B04331B78E1
:1013E0009A03029B03331B78DB011343029A0232F8
:1013F000127813431A464FF47A7303FB02F31E4A22
:101400005360029B01331B78002B11D10021102067
:1014100001F0CEFC184B01221A72184B1868164BBB
:101420005A6800230093164B002106F053FE10E08B
:101430000121102001F0BCFC0F4B00221A720F4B4F
:1014400018680D4B1A68002300930D4B002106F01D
:1014500041FE00BF08E000BF06E000BF04E000BF9F
:1014600002E000BF00E000BF0DB05DF804FB00BF6C
:10147000B004002004000020740400208804002030
:101480007D01000000B583B0264B01221A700023B5
:101490008DF807309DF80730052B14D89DF80730DC
:1014A000214A0021D1549DF80730204A0021D1540F
:1014B0009DF807301E4A0021D1549DF807300133B2
:1014C0008DF80730E6E700238DF806309DF80630EA
:1014D000132B1AD89DF806300F2B06D89DF806302E
:1014E00002211846FEF782FF09E09DF80630132B13
:1014F00005D89DF8063001211846FEF777FF9DF8C4
:10150000063001338DF80630E0E70A4B00221A60FE
:10151000044B00221A7001F0E3F800BF03B05DF83D
:1015200004FB00BF70040020D4030020E40300206B
:10153000DC030020D003002000B587B0D34B1B781C
:10154000002B00F00381D24B1B7800228DF817206E
:101550008DF8163000238DF815309DF81730DB001C
:101560008DF814309DF81430132B0FD89DF81630D9
:1015700003F00103002B09D09DF81430184601F048
:10158000FDFB0346002B01D0012300E00023002BCC
:1015900005D09DF8153043F001038DF815309DF806
:1015A0001430122B10D89DF8163003F00203002BD4
:1015B0000AD09DF814300133184601F0DFFB0346D2
:1015C000002B01D0012300E00023002B05D09DF863
:1015D000153043F002038DF815309DF81430112BAF
:1015E00010D89DF8163003F00403002B0AD09DF8A4
:1015F00014300233184601F0C1FB0346002B01D022
:10160000012300E00023002B05D09DF8153043F0A6
:1016100004038DF815309DF81430102B10D89DF868
:10162000163003F00803002B0AD09DF81430033362
:10163000184601F0A3FB0346002B01D0012300E074
:101640000023002B05D09DF8153043F008038DF8DA
:1016500015309DF814300F2B10D89DF8163003F07C
:101660001003002B0AD09DF814300433184601F003
:1016700085FB0346002B01D0012300E00023002B53
:1016800005D09DF8153043F010038DF815309DF806
:1016900014300E2B10D89DF8163003F02003002BC9
:1016A0000AD09DF814300533184601F067FB034655
:1016B000002B01D0012300E00023002B05D09DF872
:1016C000153043F020038DF815309DF814300D2BA4
:1016D00010D89DF8163003F04003002B0AD09DF877
:1016E00014300633184601F049FB0346002B01D0A5
:1016F000012300E00023002B05D09DF8153043F0B6
:1017000040038DF815309DF814300C2B0ED89DF940
:101710001630002B0ADA9DF814300733184601F012
:101720002DFB0346002B01D0012300E00023002BFA
:1017300005D09DF8153063F07F038DF815309DF8C6
:101740001530002219460020FEF718FE4F4B5B783B
:10175000002B00F007814E4B5B7801228DF813209F
:101760008DF8123000238DF811309DF81330DB0016
:101770008DF810309DF81030132B0FD89DF81230D3
:1017800003F00103002B09D09DF81030184601F03A
:10179000F5FA0346002B01D0012300E00023002BC3
:1017A00005D09DF8113043F001038DF811309DF8FC
:1017B0001030122B10D89DF8123003F00203002BCA
:1017C0000AD09DF810300133184601F0D7FA0346CD
:1017D000002B01D0012300E00023002B05D09DF851
:1017E000113043F002038DF811309DF81030112BA9
:1017F00010D89DF8123003F00403002B0AD09DF896
:1018000010300233184601F0B9FA0346002B01D01C
:10181000012300E00023002B05D09DF8113043F098
:1018200004038DF811309DF81030102B10D89DF85E
:10183000123003F00803002B0AD09DF81030033358
:10184000184601F09BFA0346002B01D0012300E06B
:101850000023002B05D09DF8113043F008038DF8CC
:1018600011309DF810300F2B14D89DF8123003F072
:101870001003002B0ED09DF810300433184601F0F1
:101880007DFA0346002B05D0012304E0D403002099
:10189000E40300200023002B05D09DF8113043F015
:1018A00010038DF811309DF810300E2B10D89DF8D4
:1018B000123003F02003002B0AD09DF810300533BE
:1018C000184601F05BFA0346002B01D0012300E02B
:1018D0000023002B05D09DF8113043F020038DF834
:1018E00011309DF810300D2B10D89DF8123003F0F8
:1018F0004003002B0AD09DF810300633184601F043
:101900003DFA0346002B01D0012300E00023002B09
:1019100005D09DF8113043F040038DF811309DF84B
:1019200010300C2B0ED89DF91230002B0ADA9DF8DE
:1019300010300733184601F021FA0346002B01D07E
:10194000012300E00023002B05D09DF8113063F047
:101950007F038DF811309DF81130002219460120C7
:10196000FEF70CFDD34B9B78002B00F00381D24B8C
:101970009B7802228DF80F208DF80E3000238DF811
:101980000D309DF80F30DB008DF80C309DF80C30D9
:10199000132B0FD89DF80E3003F00103002B09D054
:1019A0009DF80C30184601F0E9F90346002B01D0F0
:1019B000012300E00023002B05D09DF80D3043F0FB
:1019C00001038DF80D309DF80C30122B10D89DF8C6
:1019D0000E3003F00203002B0AD09DF80C300133C7
:1019E000184601F0CBF90346002B01D0012300E09B
:1019F0000023002B05D09DF80D3043F002038DF835
:101A00000D309DF80C30112B10D89DF80E3003F0DE
:101A10000403002B0AD09DF80C300233184601F065
:101A2000ADF90346002B01D0012300E00023002B79
:101A300005D09DF80D3043F004038DF80D309DF86E
:101A40000C30102B10D89DF80E3003F00803002B3B
:101A50000AD09DF80C300333184601F08FF9034685
:101A6000002B01D0012300E00023002B05D09DF8BE
:101A70000D3043F008038DF80D309DF80C300F2B1E
:101A800010D89DF80E3003F01003002B0AD09DF8FB
:101A90000C300433184601F071F90346002B01D0D5
:101AA000012300E00023002B05D09DF80D3043F00A
:101AB00010038DF80D309DF80C300E2B10D89DF8CA
:101AC0000E3003F02003002B0AD09DF80C300533B4
:101AD000184601F053F90346002B01D0012300E022
:101AE0000023002B05D09DF80D3043F020038DF826
:101AF0000D309DF80C300D2B10D89DF80E3003F0F2
:101B00004003002B0AD09DF80C300633184601F034
:101B100035F90346002B01D0012300E00023002B00
:101B200005D09DF80D3043F040038DF80D309DF841
:101B30000C300C2B0ED89DF90E30002B0ADA9DF8D4
:101B40000C300733184601F019F90346002B01D079
:101B5000012300E00023002B05D09DF80D3063F039
:101B60007F038DF80D309DF80D30002219460220BC
:101B7000FEF704FC4F4BDB78002B00F007814E4B47
:101B8000DB7803228DF80B208DF80A3000238DF8C6
:101B900009309DF80B30DB008DF808309DF80830D7
:101BA000132B0FD89DF80A3003F00103002B09D046
:101BB0009DF80830184601F0E1F80346002B01D0EB
:101BC000012300E00023002B05D09DF8093043F0ED
:101BD00001038DF809309DF80830122B10D89DF8BC
:101BE0000A3003F00203002B0AD09DF808300133BD
:101BF000184601F0C3F80346002B01D0012300E092
:101C00000023002B05D09DF8093043F002038DF826
:101C100009309DF80830112B10D89DF80A3003F0D8
:101C20000403002B0AD09DF808300233184601F057
:101C3000A5F80346002B01D0012300E00023002B70
:101C400005D09DF8093043F004038DF809309DF864
:101C50000830102B10D89DF80A3003F00803002B31
:101C60000AD09DF808300333184601F087F8034680
:101C7000002B01D0012300E00023002B05D09DF8AC
:101C8000093043F008038DF809309DF808300F2B18
:101C900014D89DF80A3003F01003002B0ED09DF8E5
:101CA00008300433184601F069F80346002B05D0CC
:101CB000012304E0D4030020E40300200023002BD0
:101CC00005D09DF8093043F010038DF809309DF8D8
:101CD00008300E2B10D89DF80A3003F02003002B9B
:101CE0000AD09DF808300533184601F047F803463E
:101CF000002B01D0012300E00023002B05D09DF82C
:101D0000093043F020038DF809309DF808300D2B81
:101D100010D89DF80A3003F04003002B0AD09DF83C
:101D200008300633184601F029F80346002B01D08D
:101D3000012300E00023002B05D09DF8093043F07B
:101D400040038DF809309DF808300C2B0ED89DF912
:101D50000A30002B0ADA9DF808300733184601F0E4
:101D60000DF80346002B01D0012300E00023002BD7
:101D700005D09DF8093063F07F038DF809309DF898
:101D80000930002219460320FEF7F8FAD34B1B79DD
:101D9000002B00F00381D24B1B7904228DF8072021
:101DA0008DF8063000238DF805309DF80730DB00F4
:101DB0008DF804309DF80430132B0FD89DF80630B1
:101DC00003F00103002B09D09DF80430184600F001
:101DD000D5FF0346002B01D0012300E00023002B98
:101DE00005D09DF8053043F001038DF805309DF8CE
:101DF0000430122B10D89DF8063003F00203002B9C
:101E00000AD09DF804300133184600F0B7FF0346AE
:101E1000002B01D0012300E00023002B05D09DF80A
:101E2000053043F002038DF805309DF80430112B86
:101E300010D89DF8063003F00403002B0AD09DF85B
:101E400004300233184600F099FF0346002B01D0FE
:101E5000012300E00023002B05D09DF8053043F05E
:101E600004038DF805309DF80430102B10D89DF830
:101E7000063003F00803002B0AD09DF8043003332A
:101E8000184600F07BFF0346002B01D0012300E041
:101E90000023002B05D09DF8053043F008038DF892
:101EA00005309DF804300F2B10D89DF8063003F054
:101EB0001003002B0AD09DF804300433184600F0BC
:101EC0005DFF0346002B01D0012300E00023002B1F
:101ED00005D09DF8053043F010038DF805309DF8CE
:101EE00004300E2B10D89DF8063003F02003002B91
:101EF0000AD09DF804300533184600F03FFF034632
:101F0000002B01D0012300E00023002B05D09DF819
:101F1000053043F020038DF805309DF804300D2B7B
:101F200010D89DF8063003F04003002B0AD09DF82E
:101F300004300633184600F021FF0346002B01D081
:101F4000012300E00023002B05D09DF8053043F06D
:101F500040038DF805309DF804300C2B0ED89DF908
:101F60000630002B0ADA9DF804300733184600F0DB
:101F700005FF0346002B01D0012300E00023002BC6
:101F800005D09DF8053063F07F038DF805309DF88E
:101F90000530002219460420FEF7F0F94F4B5B791B
:101FA000002B00F007814E4B5B7905228DF8032052
:101FB0008DF8023000238DF801309DF80330DB00EE
:101FC0008DF800309DF80030132B0FD89DF80230AB
:101FD00003F00103002B09D09DF80030184600F0F3
:101FE000CDFE0346002B01D0012300E00023002B8F
:101FF00005D09DF8013043F001038DF801309DF8C4
:102000000030122B10D89DF8023003F00203002B91
:102010000AD09DF800300133184600F0AFFE0346A9
:10202000002B01D0012300E00023002B05D09DF8F8
:10203000013043F002038DF801309DF80030112B80
:1020400010D89DF8023003F00403002B0AD09DF84D
:1020500000300233184600F091FE0346002B01D0F9
:10206000012300E00023002B05D09DF8013043F050
:1020700004038DF801309DF80030102B10D89DF826
:10208000023003F00803002B0AD09DF80030033320
:10209000184600F073FE0346002B01D0012300E038
:1020A0000023002B05D09DF8013043F008038DF884
:1020B00001309DF800300F2B14D89DF8023003F04A
:1020C0001003002B0ED09DF800300433184600F0AA
:1020D00055FE0346002B05D0012304E0D403002065
:1020E000E40300200023002B05D09DF8013043F0CD
:1020F00010038DF801309DF800300E2B10D89DF89C
:10210000023003F02003002B0AD09DF80030053385
:10211000184600F033FE0346002B01D0012300E0F7
:102120000023002B05D09DF8013043F020038DF8EB
:1021300001309DF800300D2B10D89DF8023003F0CF
:102140004003002B0AD09DF800300633184600F0FB
:1021500015FE0346002B01D0012300E00023002BD5
:1021600005D09DF8013043F040038DF801309DF813
:1021700000300C2B0ED89DF90230002B0ADA9DF8A6
:1021800000300733184600F0F9FD0346002B01D05C
:10219000012300E00023002B05D09DF8013063F0FF
:1021A0007F038DF801309DF801300022194605208B
:1021B000FEF7E4F800BF07B05DF804FB30B583B06C
:1021C000052302226B496C4801F0F4F96B4AE021C7
:1021D000694801F0F1FA6A4A9021674801F0ECFA87
:1021E000684AC021644801F0E7FA674AD021624892
:1021F00001F0E2FA654AF4215F4801F0DDFA644A31
:10220000F5215D4801F0D8FA624AF0215A4801F000
:102210002BFB614AFF21584801F012FB00F050FAF5
:102220004FF461415D4802F0A7FA5C49524801F061
:1022300077F9FFF781F9504801F034FA0346002B93
:10224000CCBF01230023DBB2002B03D04A4801F0AE
:1022500037FAF0E700F050FE0346514A1360504B46
:102260001A68504B1B68D21A4F4B1B689A42E0D930
:102270004C4B1A684C4B1B6813444A4A13600023AA
:102280008DF807309DF80730132B32D89DF80730B2
:102290000F2B0AD89DF807301946374801F0F2FA9B
:1022A0000346022B01D1012300E00023002B1AD0AA
:1022B0009DF807308DF805303C4B1A689DF80530C5
:1022C00042FA03F303F00103002B0CD09DF8053014
:1022D000184600F0D9FD03461A469DF80530194608
:1022E000254801F008FA9DF8073001338DF80730D2
:1022F000C8E72F4B93F90030002B9ADB00238DF8B1
:1023000006302B4B93F900301A469DF806309A425E
:102310008FDB9DF80620274913465B0013449B0082
:102320000B4418789DF80620224913465B0013449D
:102330009B000B44043319689DF806201D4C13467E
:102340005B0013449B00234408331C789DF806204F
:10235000184D13465B0013449B002B4409331B7834
:102360002246FDF761FF9DF8063001338DF80630F7
:10237000C7E700BF24AA0000B0040020A90900009C
:10238000050A0000DD0600005D070000ED03000007
:102390007D0600005D0B000085140000B4030020E2
:1023A000EC030020F003002000000020D0030020F8
:1023B0000B000020F403002000B583B001900091D1
:1023C000019B012B07D1009B4FF6FF72934202D174
:1023D000034802F07FF900BF03B05DF804FB00BFC3
:1023E000B403002008B54FF6FF710120FFF7E4FFAA
:1023F00008BD000082B003468DF807309DF9073014
:1024000003F01F0205499DF907305B09012000FA1E
:1024100002F241F8232000BF02B0704700E100E063
:1024200082B003468DF807309DF9073003F01F0294
:1024300006499DF907305B09012000FA02F260337A
:1024400041F8232000BF02B0704700BF00E100E068
:10245000BFF34F8F00BF074BDB6803F4E062054911
:10246000054B1343CB60BFF34F8F00BF00BF00BFCE
:10247000FCE700BF00ED00E00400FA0586B0039021
:1024800002910192039B03F1424303F58013DA00AA
:10249000029B13449B000593059B019A1A6000BFA1
:1024A00006B0704784B001900091019B03F1424354
:1024B00003F58013DA00009B13449B000393039BF6
:1024C0001B68184604B0704700B583B003460091FE
:1024D0008DF807309DF8072013465B0013441B015D
:1024E0001C3303F1804303F5204300991846FFF79E
:1024F000D9FF0346184603B05DF804FB024BDB6CC2
:102500001B0EDBB218467047B081E00F00B587B0F4
:102510002A4B01225A644FF0501304930023039373
:10252000FFF7ECFF03468DF80B306B46184605F0BD
:10253000C7F99DF80B308E2B20D8214BD3F8B03043
:1025400001931F4A019B43F00403C2F8B0300023FB
:102550000593059B052B0DD81A49059A13465B0078
:1025600013441B010B444FF050121A60059B0133BA
:102570000593EEE7124A019BC2F8B0309DF80B308C
:102580008F2B07D80E4BDB6A23F07F030C4A43F0F6
:102590002003D3629DF80130012B05D10A4B1B6843
:1025A000094A43F00403136000220D210748FFF796
:1025B00065FF00BF07B05DF804FB00BF00000E40E0
:1025C00000400E4000A0004064310E4054300E40E8
:1025D00082B00190019B9B6C184602B0704782B09C
:1025E00001900B468DF803309DF80320019B9A6003
:1025F00000BF02B0704782B001904FF6FF731846DB
:1026000002B0704700B585B0039002910192039823
:10261000FFF7F1FF039A029B1B0113446C33019AED
:102620001A6000BF05B05DF804FB00B585B00390EB
:10263000029101920398FFF7DEFF039A029B063393
:102640001B0113440433019A1A6000BF05B05DF802
:1026500004FB82B001900091019B009A5A6100BF77
:1026600002B0704782B001900091019B9A69009B73
:10267000DB431A40019B9A6100BF02B0704782B0F1
:1026800001900091019B9A69009B1A43019B9A61FA
:1026900000BF02B0704782B00190019BDB69184611
:1026A00002B0704700B583B0019000910198FFF728
:1026B000A2FF019B009ADA6100BF03B05DF804FB42
:1026C00008B500F013F800F043FB00F009FC00F03F
:1026D000ABF800F037F9012000F030FC00BF08BD76
:1026E00008B5FFF7B5FE00BF08BD000010B588B003
:1026F000FFF70CFF184B04AC0FCB84E80F0004ABC2
:10270000184604F021F800F02BF8144A01AB07CA70
:1027100003C31A7001238DF8043000238DF80530AF
:1027200000238DF8063000238DF8073000238DF844
:10273000093000238DF8083000238DF80A3000237B
:102740008DF80B3001AB184605F074F806F03EFC2E
:1027500000BF08B010BD00BF50AA000060AA000072
:1027600030B587B0274B01AC1D460FCD0FC42B6889
:102770002380254B5B6803F40023002B0CBF01234F
:102780000023DBB2002B06D0204B1B88C3F30803C9
:102790009BB2ADF80A3001AB184603F019FA1C4899
:1027A00002F01CF901220121022003F0B3FA0122F8
:1027B0000121002003F0BCF900220021032003F0D6
:1027C000A9FA0121134802F02BFE134B1B6800935A
:1027D00020238DF800306B46184603F073FA4FF44F
:1027E000004002F041F902210C4803F061F8022197
:1027F0000B4803F05DF802210A4803F059F800BFC6
:1028000007B030BD6CAA0000B081E00FB881E00FC6
:1028100000F0490200050A0080AA000002001C0026
:1028200003001E000500220008B501210C4802F03B
:10283000F7FD00210B4802F071FB03461A460A4BD4
:10284000DA700A4B00229A71084B01229A70074BEA
:102850000022DA70054B03225A7000BF08BD00BF8A
:1028600000820400405DC6000C000020140000201F
:1028700000B583B0019000910D4A019B5B011344A8
:1028800008331A780B4B1A71094A019B5B011344F8
:102890000C3302221A800849009802F02FFA0549E9
:1028A000009802F095FA00BF03B05DF804FB00BF8A
:1028B00070000020140000200C00002010B582B031
:1028C00000238DF807309DF80730032B0ED89DF8B4
:1028D0000730102202FA03F319461748FFF7B9FE32
:1028E0009DF8073001338DF80730ECE700238DF8B1
:1028F00006309DF80630032B1BD89DF806400E4885
:10290000FFF7C9FE02469DF806300C4951F8233006
:1029100003FB02F30A4AA2FB03235B091A46214682
:102920000548FFF76FFE9DF8063001338DF806303D
:10293000DFE700BF02B010BD008401409C0400200E
:102940001F85EB5108B501210B4802F069FD0B4BC7
:1029500003229A71094A0021094805F07CF8074AC8
:102960000121074805F077F8044A0221044805F0E0
:1029700072F800BF08BD00BF001204008C040020E4
:102980000084014000B585B003468DF807304FF054
:10299000FF33039300238DF80B309DF80B30032B8E
:1029A00011D89DF80B302D4A52F833209DF807308E
:1029B0009A4202D19DF80B3003939DF80B300133FE
:1029C0008DF80B30E9E7039BB3F1FF3F41D0234A79
:1029D000039BDB0013444FF011325A601F4A039BE4
:1029E0004FF0113142F833101D4B00225A6300237F
:1029F0008DF80A309DF80A30032B19D89DF80A305B
:102A0000164ADB0013445B68B3F1113F0AD0144B44
:102A10005A6B9DF80A301149DB000B445B68104982
:102A200013434B639DF80A3001338DF80A30E1E718
:102A30001022039B02FA03F319460948FFF709FE27
:102A40001022039B02FA03F319460548FFF70AFE1A
:102A500000E000BF05B05DF804FB00BF40000020AF
:102A60000084014082B001900B468DF803309DF840
:102A70000330032B3ED801A252F823F08D2A000028
:102A8000A72A0000C12A0000DB2A00009DF80330BD
:102A90002349019A52010A44103212682149DB008D
:102AA0000B445A6033E09DF803301D49019A5201EE
:102AB0000A44143212681B49DB000B445A6026E0BA
:102AC0009DF803301649019A52010A4418321268DF
:102AD0001449DB000B445A6019E09DF8033010499B
:102AE000019A52010A441C3212680E49DB000B4461
:102AF0005A600CE09DF803300949019A52010A44DA
:102B0000103212680749DB000B445A6000BF9DF881
:102B100003300449019A41F8332000BF02B07047E6
:102B2000700000204000002000B585B001900B46E9
:102B30008DF80330594B00225A63594B1B7803938D
:102B4000584A019B5B01134410331B68B3F1113FDA
:102B500044D000238DF80B309DF80B30032B10D898
:102B60009DF80B30504A52F83330019A9A4202D104
:102B70009DF80B3003939DF80B3001338DF80B302B
:102B8000EAE79DF803204949039B41F82320039B72
:102B9000DBB219460198FFF765FF00238DF80A3074
:102BA0009DF80A30032B1BD89DF80A303E4ADB0003
:102BB00013445B68B3F1113F0AD0384B5A6B9DF850
:102BC0000A303949DB000B445B68344913434B63DB
:102BD0009DF80A3001338DF80A30E1E7002359E00F
:102BE0002E4B1A6B0121039B01FA03F32B4913436C
:102BF0000B632F4802F07CFC03462E4AA2FB032302
:102C00009B0919462548FFF74DFD2448FFF743FD72
:102C100002462649039B51F8233003FB02F3264A60
:102C2000A2FB03235B091A4603991C48FFF7FDFC2E
:102C3000224B00229A702149184804F099FE102274
:102C4000039B02FA03F319461448FFF702FD122012
:102C5000FFF7E6FB124B1B781A46102393401946E8
:102C60000E48FFF70CFD1220FFF7C4FB0C4B1B783E
:102C70001A46039B93420CD1094B1B7801335A42ED
:102C800003F0030302F0030258BF5342DAB2044BCD
:102C90001A700123184605B05DF804FB008401405A
:102CA0009804002070000020400000209C040020B8
:102CB00000120400D34D62101F85EB51300000203C
:102CC00000B583B001900B468DF803300E4A019B8E
:102CD0005B0113440A331A880C4B5A8001210C48BB
:102CE00004F0D6FC9DF803301946094804F054FD61
:102CF0000649074804F0A2FC0121054804F05FFDE5
:102D000000BF03B05DF804FB70000020200000202D
:102D10000060004000B585B003900B4601928DF82D
:102D20000B300A4A039B5B0113441878074A039B44
:102D30005B011344043319689DF80B20019B04F0D8
:102D400001F800BF05B05DF804FB00BF7000002073
:102D500010B584B00121074802F062FB064B6C46B7
:102D60000FCB84E80F006B46184603F0EDFC00BF64
:102D700004B010BD00250A0050AA000000B583B0C1
:102D800001900A4A019B5B0113441A780749019B91
:102D90005B010B4404331B6819461046FFF794FB94
:102DA0000346184603B05DF804FB00BF7000002026
:102DB00000B583B001900091094A019B5B01134467
:102DC0001878074A019B5B01134404331968009B80
:102DD000042203F0B7FF00BF03B05DF804FB00BF9F
:102DE0007000002000B585B003900B468DF80B30C5
:102DF0009DF80B00642300930023FF22002100F0C4
:102E00007DF903468DF80B301D4A039B5B0113448B
:102E10000A331A881B4B1B681B889A421DD0184A1C
:102E2000039B5B0113440C331B88032B06D19DF8D5
:102E30000B3019460398FFF777FE1CE0104A039BFE
:102E40005B0113440C331B880C2B14D19DF80B3001
:102E500019460398FFF734FF0DE0094A039B5B0115
:102E600013440C331B88032B05D19DF80B301946F6
:102E70000398FFF759FE00BF05B05DF804FB00BFE3
:102E8000700000208404002000B583B00190124A35
:102E9000019B5B0113440C331B88022B03D00F49A9
:102EA0000198FFF7E5FC01210C48FFF798FB0B4B5D
:102EB000DB6803F48033002B0CBF01230023DBB25B
:102EC000002B00D0F3E70548FFF782FB03461846C6
:102ED00003B05DF804FB00BF70000020002000403C
:102EE00008B506F04BF905F08BF8024805F036F806
:102EF00000BF08BD8804002000B585B005F0CEFAFB
:102F000002460B46CDE90223DDE9020105F000FB94
:102F100003460193019B184605B05DF804FB00B51C
:102F200083B00190019B4FF47A7202FB03F31846C1
:102F300006F0BCF900BF03B05DF804FB00B583B038
:102F400003468DF8073001212B4802F069FA2B4B1C
:102F50002B4A9A602B4B03225A649DF80730002BB2
:102F60001CD101230B220A21022003F0EBFE0123D6
:102F70000B220B21022003F0E5FE224B9B6C23F079
:102F80001F03204A43F00F0393641E4B9B6C23F4F2
:102F9000F8531C4A43F4706393641BE001230B2233
:102FA0000B21012003F0CEFE01230B220621052078
:102FB00003F0C8FE134B9B6C23F01F03114A43F030
:102FC000060393640F4B9B6C23F4F8530D4A43F4B0
:102FD000E853936409490B4804F050F80A4B002267
:102FE0001A700A4B00221A70094B00221A7000BF97
:102FF00003B05DF804FB00BF007204006000002015
:10300000DDFB050000C00040AC040020AD04002042
:10301000AE04002008B5024804F05AF800BF08BD0D
:1030200000C0004000B58DB0029101921A460346DF
:10303000ADF80E301346ADF80C304FF4FA73ADF81E
:103040002C30BDF80E30ADF814309DF83C309BB2FA
:10305000ADF81630029B0693BDF80C30ADF81C306D
:10306000019B0893BDF83830ADF8243005AB194604
:10307000214804F073FA03468DF82F30FFF73CFF28
:103080000346ADF82A309DF92F30002B2ED0FFF7E4
:1030900033FF0346ADF82830174804F03BF80346E9
:1030A0008DF82F30BDF82820BDF82A30D21ABDF88F
:1030B0002C309A42E7DD9DF92F30002BE3D000231E
:1030C0008DF82E309DF82E30BDF8242093420BDA77
:1030D000089A9DF82E30134400221A709DF82E3065
:1030E00001338DF82E30EDE7FF2300E00023184672
:1030F0000DB05DF804FB00BF00C0004084B0039039
:10310000029101920093039A029BD31A0499009AA8
:103110008A1A02FB03F20199029BCB1A92FBF3F28B
:10312000009B1344184604B07047000082B0019021
:103130000091019B012B52D1009B4FF6FF729342ED
:103140004DD1284B1B681A88274BA3F86A20254BC2
:103150001B681A88244BA3F8AA20224B1B681A88E4
:10316000214BA3F8EA201F4B1B681A881E4BA3F8BB
:103170008A211C4B1B681A881B4BA3F8CA211B4BC6
:103180001B681A78184B83F80822164B1B681A889C
:10319000154BA3F80A22154B1B681A78124B83F8BB
:1031A0002822104B1B681A880F4BA3F82A220F4BBA
:1031B0001B681A780C4B83F848220A4B1B681A8844
:1031C000094BA3F84A22094B1B681A78064B83F86F
:1031D0006822044B1B681A88034BA3F86A2200BFBD
:1031E00002B070478404002070000020800400209A
:1031F00008B54FF6FF710120FFF798FF08BD0000EA
:1032000000B583B001900B468DF803301346ADF83E
:103210000030084B1B68002B07D0064B1B68BDF81D
:1032200000109DF803201046984700BF03B05DF8DA
:1032300004FB00BFE405002000B583B001900B46FD
:103240008DF803301346ADF80030084B1B68002B97
:1032500007D0064B1B68BDF800109DF803201046F0
:10326000984700BF03B05DF804FB00BFE8050020ED
:1032700000B583B001900B468DF803301346ADF8CE
:103280000030084B1B68002B07D0064B1B68BDF8AD
:1032900000109DF803201046984700BF03B05DF86A
:1032A00004FB00BFEC05002000B583B001900B4685
:1032B0008DF803301346ADF80030084B1B68002B27
:1032C00007D0064B1B68BDF800109DF80320104680
:1032D000984700BF03B05DF804FB00BFF005002075
:1032E00000B583B001900B468DF803301346ADF85E
:1032F0000030084B1B68002B07D0064B1B68BDF83D
:1033000000109DF803201046984700BF03B05DF8F9
:1033100004FB00BFF405002000B583B001900B460C
:103320008DF803301346ADF80030084B1B68002BB6
:1033300007D0064B1B68BDF800109DF8032010460F
:10334000984700BF03B05DF804FB00BFF8050020FC
:1033500000B583B001900091054B1B68002B03D092
:10336000034B1B680098984700BF03B05DF804FB4F
:10337000FC05002000B585B00390019200930B4638
:103380008DF80B30074B1B68002B07D0054B1B68D3
:10339000019AD1B29DF80B00009A984700BF05B082
:1033A0005DF804FB0006002000B585B00390029193
:1033B00001920093039B002B02D0039800F0D6F8F3
:1033C00000BF05B05DF804FB00B583B00190019B20
:1033D000002B02D0019800F0BBF800BF03B05DF8ED
:1033E00004FB000000B583B00190054B1B68002B67
:1033F00002D0034B1B68984700BF03B05DF804FB85
:103400000406002000B583B00190019B40331846AC
:1034100000F077FB019B443301994022184600F0ED
:1034200094FC019B002283F8C420019B0022C3F876
:10343000C820019B002283F83021019B03F1440046
:1034400000232C4AE02100F0ABFE019B03F1440075
:103450000023294A902100F0A3FE019B03F14400C0
:103460000023264AC02100F09BFE019B03F144008B
:103470000023234AD02100F093FE019B03F1440076
:103480000023204AF42100F08BFE019B03F144004D
:1034900000231D4AF52100F083FE019B03F1440047
:1034A00000231A4A712100F0FAFE019B03F1440047
:1034B0000023174AF02100F007FF019B03F14400AD
:1034C000019B144A792100F0B6FE019B03F14400F0
:1034D000019B114AF92100F0C3FE019B03F1440056
:1034E00000230E4AFF2100F0BBFE019B184603B0EB
:1034F0005DF804FB0132000039320000E1320000C7
:103500001933000071320000A9320000513300006D
:1035100075330000A9330000C9330000E533000013
:1035200000B583B001900091019B009AC3F8C020C0
:10353000019B40330099184600F0ECFA019800F026
:1035400007F8019800F012F800BF03B05DF804FB23
:1035500000B583B00190019B40330522022118463B
:1035600000F083FB00BF03B05DF804FB10B584B02E
:103570000390039B93F8C430002B18D0039B03F1F6
:103580004000039BD3F8C8301978039BD3F8C830A8
:1035900001331A78039B93F8C430023B1C46039B0B
:1035A000D3F8C83002330093234600F017FB00BF66
:1035B00004B010BD00B587B00390029111461A46C1
:1035C0000B468DF8073013468DF8063034490298C3
:1035D00007F081F904902F21029807F068F905900F
:1035E000059B002B04D15C21029807F060F905903F
:1035F000059B002B02D1029B059302E0059B013342
:103600000593049B002B0AD1059807F035F9034672
:10361000DBB20233DAB2039B83F8C42008E0049AD9
:10362000059BD31ADBB20233DAB2039B83F8C420C2
:10363000039BD3F8C830184607F004F8039B93F8AF
:10364000C4300133184606F0F5FF03461A46039BC3
:10365000C3F8C820039BD3F8C830039A92F8C4205B
:10366000134400221A70039BD3F8C8309DF807203A
:103670001A70039BD3F8C83001339DF806201A70E6
:10368000039BD3F8C830981C039B93F8C430023BCB
:103690001A46059907F0F8F800BF07B05DF804FB7B
:1036A00084AA000000B583B00190019BD3F8C0301C
:1036B000184601F005F90346184603B05DF804FB0F
:1036C00000B585B00190019BD3F8C030184601F0D9
:1036D000CBF803460393039BB3F1FF3F07D0019B55
:1036E0004433039AD2B21146184600F09BFB00BF48
:1036F00005B05DF804FB00B585B003900B46019260
:103700008DF80B30039B4033019A92B29DF80B1059
:10371000184600F008FA00BF05B05DF804FB00B5DC
:1037200085B003900B4601928DF80B30039B40331C
:10373000019A92B29DF80B10184600F028FA00BFCB
:1037400005B05DF804FB00B585B0039001930B460E
:103750008DF80B3013468DF80A30039B03F14000BF
:103760009DF80A209DF80B10019B00F0A6FA00BFFF
:1037700005B05DF804FB00B583B001900091019B9A
:1037800040330099184600F0CFFA00BF03B05DF84F
:1037900004FB00B583B001900B468DF80330019B0C
:1037A000D3F8C0309DF803201146184601F01AF8EE
:1037B00000BF03B05DF804FB84B003900B46019298
:1037C0008DF80B309DF80B30F52B26D0F52B28DC2F
:1037D000F42B1ED0F42B24DCE02B0AD0E02B20DCD1
:1037E000D02B12D0D02B1CDC902B06D0C02B08D0B5
:1037F00017E00D4A019B136013E00C4A019B136014
:103800000FE00B4A019B13600BE00A4A019B136017
:1038100007E0094A019B136003E0084A019B13601B
:1038200000BF00BF04B07047E4050020E805002099
:10383000F4050020F8050020EC050020F00500202C
:1038400084B003900B4601928DF80B309DF80B303D
:10385000FF2B03D1034A019B136000BF00BF04B0DC
:10386000704700BF0406002084B003900B4601920D
:103870008DF80B30024A019B136000BF04B0704703
:103880000006002082B001900B468DF803309DF8B1
:103890000330019A134493F8CC30184602B07047B5
:1038A00000B583B001900B468DF8033013468DF8B8
:1038B00002309DF80330019A134493F8CC307F2BEB
:1038C00021D09DF80330124A5B0113440C331B884E
:1038D000032B04D09DF803301846FFF753F89DF8EA
:1038E0000330019A13449DF8022083F8CC209DF800
:1038F00003309DF8022091B2054A5B0113440C335A
:103900000A461A8000E000BF03B05DF804FB00BF68
:103910007000002082B001900B468DF803309DF8B6
:103920000320019B383253F82230184602B070470A
:1039300084B003900B4601928DF80B309DF80B205C
:10394000039B3832019943F8221000BF04B070473E
:1039500000B583B001900091019B012B07D1009B22
:103960004FF6FF72934202D10348FFF74BFD00BFB1
:1039700003B05DF804FB00BFB004002008B54FF6AB
:10398000FF710120FFF7E4FF08BD00B585B003908B
:10399000019200930B468DF80B30039B1B68002BA4
:1039A00020D0039B1B68F021184600F01BFF039BEF
:1039B0001B686F21184600F015FF039B1B689DF8DC
:1039C0000B201146184600F00DFF019B009A01994B
:1039D000039800F00BF8039B1B68F721184600F0D2
:1039E00001FF00E000BF05B05DF804FB00B58BB03F
:1039F00003900291019200930023099300230893FE
:103A0000019B1B788DF81F30009B002B02D14FF0DB
:103A1000FF33009300230693069A029B9A4255D2E5
:103A2000099A009B9A4251D2019A069B13441B7833
:103A30001A46089B02FA03F35AB29DF91F3013434A
:103A40005BB28DF81730039B1A689DF8173003F0AE
:103A50007F03DBB21946104600F0C4FE099B013318
:103A60000993019A069B13441B781A46089BC3F1DD
:103A7000070342FA03F38DF81F30089B01330893C4
:103A8000089B062B1ED9099A009B9A421AD29DF8D0
:103A90001F308DF81730039B1A689DF8173003F01C
:103AA0007F03DBB21946104600F09CFE099B0133F0
:103AB00009939DF81F30DB118DF81F30089B073BE1
:103AC0000893DDE7069B01330693A5E7089B002BCF
:103AD00013D0099A009B9A420FD2039B18680122C7
:103AE000089B02FA03F3DBB2013BDAB29DF81F3008
:103AF0001340DBB2194600F075FE00BF0BB05DF855
:103B000004FB82B00190019B00221A60019B1846C1
:103B100002B0704782B001900091019B009A1A6038
:103B200000BF02B0704700B583B001900B468DF81E
:103B300003301346ADF80030019B1B68002B22D0E8
:103B40009DF803300F2B16D8BDF80030B3F5804F29
:103B500011D2019B1A689DF8033063F01F03DBB29A
:103B60001946104600F03EFE6A46022302210198E3
:103B7000FFF73CFF08E06B469DF803100222019816
:103B8000FFF703FF00E000BF03B05DF804FB00B5E2
:103B900083B001900B468DF803301346ADF800302A
:103BA000019B1B68002B15D0019B1A689DF90330FF
:103BB00003F00F035BB263F06F035BB2DBB2194635
:103BC000104600F00FFE6A46022302210198FFF71B
:103BD0000DFF00E000BF03B05DF804FB00B587B047
:103BE000039001930B468DF80B3013468DF80A3085
:103BF000039B1B68002B34D0039B1B68F0211846E5
:103C000000F0F0FD039B1B687921184600F0EAFDE7
:103C1000039B1B689DF80B201146184600F0E2FD3F
:103C2000039B1B689DF80A201146184600F0DAFD38
:103C300000230593059A019B9A420BD2089A059B93
:103C40001A44002301210398FFF7D0FE059B01339E
:103C50000593EFE7039B1B68F721184600F0C2FDB0
:103C600000E000BF07B05DF804FB00B583B0019031
:103C70000B468DF8033013468DF80230019B1B680C
:103C8000002B16D0019B1B68F921184600F0AAFDF5
:103C9000019B1B689DF803201146184600F0A2FD09
:103CA000019B1B689DF802201146184600F09AFD02
:103CB00000E000BF03B05DF804FB00B587B00390DF
:103CC000019200930B468DF80B30039B1B68002B71
:103CD00026D0039B1B68F021184600F083FD039B50
:103CE0001B689DF80B201146184600F07BFD002351
:103CF0000593059A019B9A420BD2009A059B1A44A0
:103D0000002301210398FFF771FE059B0133059302
:103D1000EFE7039B1B68F721184600F063FD00E006
:103D200000BF07B05DF804FB00B583B001900091BF
:103D3000009806F0A1FD0246009B71210198FFF753
:103D4000BCFF00BF03B05DF804FB84B00390029198
:103D50000192039B029A5A60039B019A9A60039B0B
:103D600000221A73039B00225A73039B00221A61DC
:103D7000039B00221A75039B00229A61039B002279
:103D8000DA61039B00221A62039B00225A62039BA2
:103D900000229A62039B0022DA62039B00221A63CC
:103DA000039B00225A63039B00229A63039B002219
:103DB000DA63039B00221A64039B00225A64039B6C
:103DC00000229A64039B0022DA64039B00221A6596
:103DD000039B00225A65039B00229A65039B0022E5
:103DE000DA65039B00221A66039B00225A66039B36
:103DF00000229A66039B0022DA66039B00221A6760
:103E0000039B00225A67039B00229A67029B002BA8
:103E10000CBF01230023DAB2039B1A70039B1846E0
:103E200004B0704710B584B001900B468DF8033094
:103E3000019B1B7D002B18D09DF80330F72B06D17A
:103E4000019B00221A75019800F0BEFAA5E1019BC2
:103E50009A699DF803301946019800F045FA019BD4
:103E60009B695A1C019B9A6197E1019B1B69002B7E
:103E700000F0BE809DF90330002BC0F2B980019B99
:103E80001B695A1E019B1A61019B1A699DF8033038
:103E90001946019800F028FA019B1B69002B40F09D
:103EA0007981019B1B7B002B00F07481019B1B7BA4
:103EB000F52B5CD0F52B00F39780F42B45D0F42B39
:103EC00000F39280E02B0CD0E02B00F38D80D02B00
:103ED0006FD0D02B00F38880902B1CD0C02B58D0F3
:103EE00082E0019BDB6C002B73D0019BDB6C019AA1
:103EF000D069019A547B019A5268127892B2D20129
:103F000091B2019A52680132127892B20A4492B286
:103F1000214698475DE0019B1B6D002B5BD0019B08
:103F20001B6D019A106A019A547B019A52681278AB
:103F300092B2D20191B2019A52680132127892B2D1
:103F40000A4492B22146984745E0019BDB6D002B65
:103F500043D0019BDB6D019AD06A019A526801320D
:103F60001178019A5268127892B2984735E0019B15
:103F70001B6E002B33D0019B1B6E019A106B019AB4
:103F8000526801321178019A5268127892B29847B9
:103F900025E0019B5B6D002B23D0019B5B6D019A9B
:103FA000506A019A517B019A5268127892B29847EE
:103FB00017E0019B9B6D002B15D0019B9B6D019A17
:103FC000906A019A517B019A5268127892B298478E
:103FD00009E000BF08E000BF06E000BF04E000BF4A
:103FE00002E000BF00E000BF019B00221A73D1E095
:103FF0009DF80330EF2B0DD89DF8033023F00F030D
:104000008DF80F309DF8033003F00F03DAB2019BF7
:104010005A7303E09DF803308DF80F309DF80F3090
:10402000902B00F09180902BC0F2B780FF2B00F313
:10403000B480C02BC0F2B180C03B3F2B00F2AD80FA
:1040400001A252F823F000BF594100009B4100003B
:104050009B4100009B4100009B4100009B410000F0
:104060009B4100009B4100009B4100009B410000E0
:104070009B4100009B4100009B4100009B410000D0
:104080009B4100009B410000594100009B41000002
:104090009B4100009B4100009B4100009B410000B0
:1040A0009B4100009B4100009B4100009B410000A0
:1040B0009B4100009B4100009B4100009B41000090
:1040C0009B4100009B410000494100009B410000D2
:1040D0009B4100009B4100009B4100009B41000070
:1040E0009B4100009B4100009B4100009B41000060
:1040F0009B4100009B4100009B4100009B41000050
:104100009B4100009B410000694100009B41000071
:104110009B4100009B4100004941000049410000D3
:104120009B4100009B4100009B4100007F4100003B
:104130009B4100009B4100009B4100009B4100000F
:104140009B41000077410000019B02221A61019B04
:104150009DF80F201A7320E0019B01221A61019B38
:104160009DF80F201A7318E0019B01221A75019B1C
:1041700000229A6111E0019800F0A7F90DE0019B7F
:104180005B6F002B08D0019B5B6F019A926B10460E
:10419000984701E000BF00E000BF00BF04B010BDC1
:1041A00084B00390019200930B468DF80B309DF87C
:1041B0000B30F52B35D0F52B3ADCF42B2AD0F42B31
:1041C00036DCE02B0AD0E02B32DCD02B1BD0D02BFE
:1041D0002EDC902B09D0C02B0ED029E0039B019A36
:1041E000DA64039B009ADA6122E0039B019A1A6564
:1041F000039B009A1A621BE0039B019A5A65039B7A
:10420000009A5A6214E0039B019A9A65039B009AF4
:104210009A620DE0039B019ADA65039B009ADA62C9
:1042200006E0039B019A1A66039B009A1A6300BF7B
:1042300000BF04B0704784B00390019200930B4616
:104240008DF80B309DF80B30792B06D1039B019A2A
:104250001A67039B009A5A6300BF00BF04B07047FF
:1042600084B00390019200930B468DF80B309DF8BB
:104270000B30F92B02D0FF2B07D00DE0039B019AE6
:104280005A67039B009A9A6306E0039B019A9A6718
:10429000039B009A9A6400BF00BF04B0704784B0CB
:1042A0000390019200930B468DF80B309DF80B3074
:1042B000712B06D1039B019A9A66039B009A1A649C
:1042C00000BF00BF04B0704784B003900192009318
:1042D0000B468DF80B30039B019ADA66039B009A1C
:1042E0005A6400BF04B0704700B587B003900B4616
:1042F00001928DF80B30039B9B68019A9A422CBF68
:10430000012300238DF817309DF81730002B15D0AE
:10431000039B5B6E002B11D0039B01221A70039B41
:104320005B6E039AD26B10469847039B9B68019A79
:104330009A422CBF012300238DF817309DF81730C7
:1043400083F00103DBB2002B06D0039B5A68019B6C
:1043500013449DF80B201A709DF81730184607B0CB
:104360005DF804FB86B00390029101920023049350
:1043700000230593049A029B9A4221D2019A049B3E
:104380001A440199059B0B4412781A70049B01335F
:104390000493019A049B13441B78DB01D9B2019A60
:1043A000059B13441A780198059B03440A43D2B233
:1043B0001A70059B01330593049B01330493D9E7DD
:1043C000059B184606B0704710B588B00190019B58
:1043D0005B681B78712B3DD0792B5DD1019B1B6FE6
:1043E000002B6CD00123079302230693032305932C
:1043F000019B9B69022B08D8019B1C6F019B586B8A
:10440000002300220021A04759E0019B9B69D91E8F
:10441000019B5B6803331A460198FFF7A3FF03462D
:1044200003330493049A00210198FFF75DFF019B79
:104430001C6F019B586B019B5B6801331B7819460D
:10444000019B5B6802331B781A46019B5B68033350
:10445000A04734E0019B9B6E002B32D001230393D5
:10446000019B9B69591E019B5B6801331A460198A9
:10447000FFF778FF034601330293029A0021019867
:10448000FFF732FF019B9B6E019A106C019A5268F4
:1044900001321146984714E0019BDB6E002B11D0CE
:1044A000019BDC6E019B586C019B5B681978019B3A
:1044B0009B695A1E019B5B680133A04702E000BF65
:1044C00000E000BF00BF08B010BD00B585B001908E
:1044D000019B00221A61019B00221A73019B00229A
:1044E0005A7300230393019B9B68039A9A4209D253
:1044F000019B5A68039B134400221A70039B0133EB
:104500000393F0E7019B00221A75019B00229A6138
:10451000019B9B6F002B05D0019B9B6F019A926CB6
:104520001046984700BF05B05DF804FB82B0034613
:104530008DF807309DF9073003F01F0205499DF9FA
:1045400007305B09012000FA02F241F8232000BF86
:1045500002B0704700E100E082B003468DF80730FA
:104560009DF9073003F01F0206499DF907305B09EA
:10457000012000FA02F2603341F8232000BF02B0AC
:10458000704700BF00E100E082B001900091019B04
:10459000009A9A6400BF02B0704782B00190009107
:1045A000019BDA6C009BDB431A40019BDA6400BF7D
:1045B00002B0704782B001900091019BDA6C009BC1
:1045C0001A43019BDA6400BF02B0704700B583B0A4
:1045D0001C4B1B6C03F00403002B14BF01230023AE
:1045E000DBB2002B2AD0174803F0CEFB03468DF830
:1045F0000730154BD3F8043113499DF80720CA54EE
:10460000114BD3F804310133DBB20F4AC2F8043145
:104610000D4BD3F8083101330B4AC2F808310A4B6D
:10462000D3F80831B3F5807F8CBF01230023DBB2C0
:10463000002B03D0044B012283F80C2100BF03B0F0
:104640005DF804FB000001400806002008B51F4B80
:104650001B6C03F00203002B14BF01230023DBB209
:10466000002B30D01A4BD3F80831002B14BF012394
:104670000023DBB2002B18D0154BD3F80031144ABD
:10468000D35CDBB21946114803F08DFB104BD3F815
:1046900000310133DBB20E4AC2F800310C4BD3F8C3
:1046A0000831013B0A4AC2F80831094BD3F80831F6
:1046B000002B0CBF01230023DBB2002B03D002210F
:1046C0000248FFF76AFF00BF08BD00BF00000140BD
:1046D0001807002030B583B00190019B224A1C4688
:1046E00015460FCD0FC495E8070084E807000121A7
:1046F0001E4800F095FE01211D4800F091FE0121A9
:104700001C4800F08DFE002301220221052002F04A
:1047100019FB012304220321052002F013FB019B56
:1047200000221A70019B00225A60019B4FF46142E3
:104730009A60019B00221A73019B05225A73019B08
:104740000022DA81019B4FF480521A82019B0022E1
:104750009A74019B0022DA74019B00221A75019B56
:10476000184603B030BD00BF8CAA000040410500D0
:104770000022040000250A0000B583B001900091DA
:10478000009A019B9A60019B1946144803F048FA6D
:1047900013491248FFF7F8FE04211048FFF70AFFFB
:1047A0000B20FFF7D9FE0C20FFF7D6FE0B20FFF7FA
:1047B000BDFE0C20FFF7BAFE084B5B6F074A43F0C3
:1047C00003035367054B41F619329A6705210348E5
:1047D00003F002FA00BF03B05DF804FB00000140E3
:1047E000F9FF010000B583B001900B468DF803304E
:1047F0001B4BD3F808310133B3F5807F8CBF012305
:104800000023DBB2002B0CD0154BD3F80831013359
:10481000B3F5807F8CBF01230023DBB2002B00D0D7
:10482000F2E70F4BD3F804310D499DF80320CA5429
:104830000B4BD3F804310133DBB2094AC2F804311F
:10484000074BD3F808310133054AC2F80831022179
:104850000448FFF7AFFE00BF03B05DF804FB00BFE4
:10486000180700200000014084B00190134BD3F8DA
:104870000831002B0CBF01230023DBB2002B02D038
:104880004FF0FF3317E00D4BD3F800310B4AD35CE8
:104890008DF80F30094BD3F800310133DBB2074AF2
:1048A000C2F80031054BD3F80831013B034AC2F886
:1048B00008319DF80F30184604B0704708060020F4
:1048C00082B00190094BD3F80831002B0CBF0123B3
:1048D0000023DBB2002B02D04FF0FF3302E0034B8A
:1048E000D3F80831184602B0704700BF0806002010
:1048F000064880470649074A074B9A42BEBF51F80F
:10490000040B42F8040BF8E7FBF7FEFB0D4A00002E
:1049100000AE00000000002094030020FEE700BF6E
:1049200000B583B000F020F801900A4BD3F80831AD
:104930001B0AC3F308030093009B0133019AB2FBE7
:10494000F3F30193044A019B1360019B184603B0E3
:104950005DF804FB00400E40F8020020014B1846B1
:10496000704700BF00F0490282B0154BD3F8943075
:1049700003F00703042B06D0042B10D8022B0AD017
:10498000032B04D00BE00F4B1B6801930BE04FF49B
:104990000043019307E00C4B1B68019303E00B4BB2
:1049A0001B68019300BF064BD3F800311B0A03F0CC
:1049B0001F030133019AB2FBF3F3184602B07047AC
:1049C00000400E40F4020020F0020020FC02002013
:1049D000014B1B6818467047F002002000B583B0F9
:1049E0000190084A019B1360074BD3F8943003F001
:1049F0000703022B01D1FFF793FF00BF03B05DF85F
:104A000004FB00BFF002002000400E400C4B5B6D29
:104A10000B4A43F400535365094B1B6C084A23F0BF
:104A200003031364074B1B68064A23F0010313605A
:104A3000054B1B68044A23F08053136000BF704786
:104A400000300E4074300E4060300E404FF4004392
:104A5000184670474FF47A7318467047014B1B682D
:104A600018467047F402002000B583B00190084A50
:104A7000019B1360074BD3F8943003F00703042B1A
:104A800001D1FFF74DFF00BF03B05DF804FB00BF8D
:104A9000F402002000400E4082B001900091019B82
:104AA000009A1A6400BF02B0704786B0039002916A
:104AB0000192039B03F1424303F58013DA00029B4A
:104AC00013449B000593059B019A1A6000BF06B032
:104AD000704784B001900091019B03F1C063039380
:104AE000039B009A1A6000BF04B0704784B0019025
:104AF0000091019B03F180630393039B009A1A606A
:104B000000BF04B0704700B585B0039002910192D8
:104B100002990398FFF7EAFF01990398FFF7D9FF7D
:104B200000BF05B05DF804FB88B001900B468DF81E
:104B3000033013468DF802309DF80230002B04D06C
:104B400010230593694B069303E000230593684BFC
:104B50000693019B5B6B069A134004930023079313
:104B6000019B644A934240F0BD80634B03939DF8E0
:104B70000330062B16DC002BC0F2A980062B00F2B6
:104B8000A68001A252F823F0AB4B0000D74B0000E7
:104B90000D4C00003F4C0000CF4C0000CF4C0000FB
:104BA0007B4C0000812B79D091E0039B1B6803F4C0
:104BB000FE43079A13430793039B1B6803F00F03FD
:104BC000079A13430793039B1B6803F0F003079AAC
:104BD000134307937EE0039B1B681B0E1B0203F429
:104BE000FE43079A13430793039B1B681B0C03F0B8
:104BF0000F03079A13430793039B1B681B0D1B01AD
:104C000003F0F003079A1343079363E0039B043315
:104C10001B6803F4FE43079A13430793039B043373
:104C20001B6803F00F03079A13430793039B043396
:104C30001B6803F0F003079A134307934AE0039BB2
:104C400004331B681B0E1B0203F4FE43079A134335
:104C50000793039B04331B681B0C03F00F03079A95
:104C600013430793039B04331B681B0D1B0103F0C5
:104C7000F003079A134307932CE0039B08331B6848
:104C800003F00F03079A13430793039B08331B6832
:104C900003F0F003079A134307931BE0039B0433CD
:104CA0001B6803F4FE43079A13430793039B0433E3
:104CB0001B6803F00F03079A13430793039B043306
:104CC0001B6803F0F003079A1343079302E00023E5
:104CD000079300BF079A059B9A40049B1A43019BC8
:104CE0005A6300E000BF08B0704700BFFFFF0080BC
:104CF0000080FFFF002000401082E00F00B589B067
:104D000001900091009BDB788DF81B309DF81B30E3
:104D1000002B07D100212B4800F000F903468DF845
:104D20001B300EE0019B1B6803F08003002B08D1B1
:104D30000021244800F0F2F800214FF4FA4000F07E
:104D4000EDF8019B0A229A60009B1B781A06009BD3
:104D50009B781B0403F4FE031A439DF81B301B02CF
:104D600003F4FE431343009A527813430793009BC6
:104D70001B79002B03D0079B43F010030793019B83
:104D8000079A1A600198009B5B791A46C021FFF7C9
:104D9000BAFE019B1B6803F08003802B09D10A4BEC
:104DA0000593059800F0A4FB0490084800F0A0FBD0
:104DB00003904FF400610198FFF76EFE00BF09B049
:104DC0005DF804FB0024F400B80030004041050009
:104DD00000B585B001900091019B02229A60009B72
:104DE0009B78002219460198FFF79EFE009B5B7896
:104DF0001A06009B1B791B021A43009B5B791B045C
:104E00001A43009BDB78DB0013430393009BDB79A1
:104E1000002B03D0039B43F000530393009B1B7AAA
:104E2000002B03D0039B43F004030393009B9B7967
:104E3000002B03D0039B43F002030393009B5B7A98
:104E4000002B03D0039B43F001030393009B1B79CA
:104E5000F32B0DD1009B9B78002B09D1009B5B7835
:104E6000032B05D8039B23F0706343F08063039307
:104E7000009B9B785BB2002B04DA039B43F0E003BA
:104E8000039305E0009B9B785B01039A1343039314
:104E9000019B039A1A61019B5B6923F4F21323F0CF
:104EA00007030393009B9B785BB2002B06DA009B01
:104EB0009B7823F08003039A13430393009B1B7892
:104EC0005B04039A13430393009BDB7A002B03D00C
:104ED000039B43F480430393019B039A5A61019817
:104EE000009B9B7A1A460221FFF7DFFD009B1B798E
:104EF000F32B07D1019B3033012210211846FFF715
:104F0000D4FD06E0019B3033002210211846FFF744
:104F1000CCFD00BF05B05DF804FB000000B585B016
:104F200001900091019B164A934202D9144B0193C0
:104F300006E0019BB3F5FA4F02D24FF4FA43019316
:104F4000009B002B03D10F4800F0D2FA0090009A8A
:104F5000019B13445A1E019BB2FBF3F30393039B83
:104F6000002B02D0039B013B0393039B7F2B01D9B2
:104F70007F230393039BDBB2184605B05DF804FB67
:104F80000024F4004041050086B003900291019294
:104F9000039B03F1424303F58013DA00029B1344A1
:104FA0009B000593059B019A1A6000BF06B07047ED
:104FB00084B001900091019B03F1424303F58013FB
:104FC000DA00009B13449B000393039B1B68184665
:104FD00004B0704784B001900091019B03F1C0635D
:104FE0000393039B009A1A6000BF04B0704784B01B
:104FF00001900091019B03F180630393039B009A4E
:105000001A6000BF04B0704700B585B003900291EC
:10501000019202990398FFF7EAFF01990398FFF7BD
:10502000D9FF00BF05B05DF804FB82B001900122FA
:10503000019B02FA03F3184602B0704700B585B031
:10504000019001230393019B124A934204D8002349
:1050500003930023029308E0019B0F4A934202D876
:105060000123029301E002230293039A10210B48CB
:10507000FFF78AFF094BD3F8003123F08072029BBF
:105080001B0606491343C1F8003100BF05B05DF8A7
:1050900004FB00BF0048E8010090D00300400E4030
:1050A00082B0034B1B680193019B184602B0704706
:1050B0000003002000B583B0FFF756FC0190074BBA
:1050C000D3F800311B0A03F01F030133019A02FBDE
:1050D00003F3184603B05DF804FB00BF00400E4028
:1050E00000B583B00D4800F0F3FA03468DF80330A5
:1050F0009DF80330072B05D0092B07D1FFF734FCAF
:10510000019006E0FFF7CCFF019002E0002301933D
:1051100000BF019B184603B05DF804FB06000E00BB
:1051200000B585B00190019B002B1FD11C4800F0F9
:10513000CFFA03468DF80B3000BF9DF80B30013BD2
:10514000072B24D801A252F823F000BF71510000B0
:105150008F5100008F5100007F5100008F510000DF
:105160008F5100007751000087510000002312E0AA
:10517000002303930EE0FFF793FF03900AE0FFF78D
:1051800027FC039006E0FFF795FF039002E0002361
:10519000039300BF039B184605B05DF804FB00BFF6
:1051A000B800300084B001900091104B5B6803F0B0
:1051B00040730393019B0E4A934202D8002303934A
:1051C00005E0019B0B4A934201D801230393039B03
:1051D0001B060393054B5B6823F040720349039B56
:1051E00013434B6000BF04B0704700BF00000E4087
:1051F00040787D01005A620200B583B00E4B1B6CF3
:10520000002B14BF012300238DF807300A4B41F611
:1052100071321A64FFF7A2FB034600211846FFF71C
:10522000C1FF9DF80730002B02D0034B00221A6407
:1052300000BF03B05DF804FB00000E4000B585B070
:10524000019000910D4B1B6C002B14BF0123002318
:105250008DF80F30094B41F671321A6400990198AC
:10526000FFF7A0FF9DF80F30002B02D0034B002268
:105270001A6400BF05B05DF804FB00BF00000E40DB
:1052800086B001900F230593019B03330493059B84
:105290000393039A049B934228BF13460293029BF5
:1052A0001B070293029B184606B07047034B5B6ACC
:1052B0001B0903F003031846704700BF00400E406F
:1052C00082B00190054B5B6A23F03002019B1B0109
:1052D000024913434B6200BF02B0704700400E40CA
:1052E00010B584B0019000230293019B3A4A934287
:1052F0000BD0019B384A934209D8019B374A93420D
:1053000003D0019B364A934201E000BF00E000BF9A
:10531000019800F0DDF903460393019B2E4A934266
:105320001AD0019B2C4A93421DD8019B2B4A9342D1
:1053300004D0019B2A4A934207D014E0294BD3F8AA
:10534000803003F0070303930EE0264BD3F884303C
:1053500003F00703039307E0224BD3F8883003F0F0
:105360000703039300E000BF039B042B2DD801A289
:1053700052F823F0C55300008953000091530000F8
:10538000A153000099530000FFF760FB02901FE05B
:10539000FFF764FB02901BE0FFF75CFB029017E055
:1053A000FFF7BEFA04460F4BD3F800311B0E03F093
:1053B000010301331846FFF738FE0346B4FBF3F34D
:1053C000029305E00023029302E00023029300BF52
:1053D000029B184604B010BD0500220002001C000C
:1053E00003001E0000400E4082B00190094BD3F82C
:1053F000443103F00103002B08D100BF054BD3F863
:105400004021019B1340002BF8D100E000BF02B007
:10541000704700BF00400E4000BF704700BF70479C
:1054200000B587B001900B468DF80330002304933C
:10543000019B1B0A03F00F03013B092B45D801A276
:1054400052F823F06D54000079540000CB54000052
:10545000CB540000735400007F54000089540000B6
:10546000CB540000935400009F540000194B059347
:1054700018E0194B059315E0184B059312E0184BF3
:105480000593012304930DE0164B05931023049319
:1054900008E0154B05934FF48033049302E0134B5F
:1054A000059300BF019B1B0B03F01F030393049B99
:1054B000002B02D00498FFF797FF9DF803301A469F
:1054C00003990598FFF760FD00E000BF07B05DF8A5
:1054D00004FB00BF00400E40B0400E40C0400E40F4
:1054E000E0400E40E8400E40F0400E4050410E407B
:1054F00000B585B00190019B03F47813B3F5401F0C
:1055000000F0D080B3F5401F00F2D180B3F5081F42
:1055100000F0BB80B3F5081F00F2C980B3F5F01F9F
:1055200000F09C80B3F5F01F00F2C180B3F5E01FDE
:1055300078D0B3F5E01F00F2BA80B3F5C01F00F0D9
:105540009280B3F5C01F00F2B280B3F5B01F73D0E4
:10555000B3F5B01F00F2AB80B3F5A01F67D0B3F571
:10556000A01F00F2A480B3F5801F00F09780B3F570
:10557000801F00F29C80B3F5602F00F08B80B3F5A4
:10558000602F00F29480B3F5402F3CD0B3F5402F4C
:1055900000F28D80B3F5202F22D0B3F5202F00F23A
:1055A0008680B3F5802F0CD0B3F5802F7FD8002BE9
:1055B00003D0B3F5003F17D079E0FFF7D5F903909A
:1055C00078E0FFF7D1F903903D4BD3F80C311B0A7B
:1055D000C3F308030133039AB2FBF3F3039369E0C7
:1055E000FFF7C2F9039065E0FFF7BEF90390344B73
:1055F000D3F808311B0AC3F308030133039AB2FB43
:10560000F3F3039356E0FFF7AFF903902C4BD3F875
:1056100014311B0A03F01F030133039AB2FBF3F3A7
:10562000039347E02748FFF75BFE039042E02648DC
:10563000FFF756FE03903DE02248FFF751FE03902E
:105640001F4BD3F8203103F00F031846FFF7EDFC92
:105650000246039BB3FBF2F303932BE01B48FFF7D7
:105660003FFE039026E01948FFF73AFE0390144BE3
:10567000D3F8283103F003031846FFF7D6FC02469F
:10568000039BB3FBF2F3039314E00F48FFF728FEEC
:1056900003900FE0FFF724FD03900BE0FFF700FD00
:1056A000039007E00020FFF73BFD039002E000239A
:1056B000039300BF039B184605B05DF804FB00BFD1
:1056C00000400E4002001C000500220003001E00E6
:1056D00084B0019001238DF80F30019B03F00F037C
:1056E0000293029B013B072B00F2D68001A252F8E5
:1056F00023F000BF155700005357000091570000DA
:1057000099580000E3570000215800009958000004
:105710004B580000654BD3F8943003F00703042B7B
:1057200006D0042B10D8022B0AD0032B04D00BE098
:1057300002238DF80F300BE003238DF80F3007E0C4
:1057400004238DF80F3003E005238DF80F3000BFE0
:10575000A6E0564BD3F8803003F00703042B0ED09D
:10576000042B10D8012B02D0022B04D00BE0032312
:105770008DF80F300BE002238DF80F3007E00A237D
:105780008DF80F3003E001238DF80F3000BF87E064
:10579000464BD3F8843003F00703013B032B1BD89F
:1057A00001A252F823F000BFB9570000C157000012
:1057B000D1570000C957000003238DF80F300FE0C8
:1057C00002238DF80F300BE00A238DF80F3007E02D
:1057D00006238DF80F3003E001238DF80F3000BF52
:1057E0005EE0324BD3F8883003F00703042B0ED071
:1057F000042B10D8012B02D0022B04D00BE0032382
:105800008DF80F300BE002238DF80F3007E00A23EC
:105810008DF80F3003E001238DF80F3000BF3FE01B
:10582000224B1B6F03F00103002B05D0012B07D186
:1058300009238DF80F3007E007238DF80F3003E0C0
:1058400001238DF80F3000BF2AE0184BD3F85C31EC
:1058500003F03003302B16D0302B18D8202B0ED06D
:10586000202B14D8002B02D0102B04D00FE00123E2
:105870008DF80F300FE007238DF80F300BE0042375
:105880008DF80F3007E008238DF80F3003E0012377
:105890008DF80F3000BF03E000238DF80F3000BFFC
:1058A0009DF80F30184604B0704700BF00400E400E
:1058B00000B589B001900B468DF8033003230793A0
:1058C00003238DF81B3000230493019B03F00F0387
:1058D0000393039B013B072B00F2128101A252F8B4
:1058E00023F000BF05590000B7590000D35900004C
:1058F000015B0000C55900006D5A0000015B00000B
:105900008D5A00009DF80330023B082B00F2FA800C
:1059100001A252F823F000BF3D5900004959000090
:105920005559000067590000055B0000055B000049
:10593000055B0000055B0000055B00000423079386
:1059400000238DF81B3017E00323079301238DF804
:105950001B3011E00223079302238DF81B306D48A2
:10596000FFF76CFB08E00123079303238DF81B303E
:105970006848FFF763FB00BF9DF81B30012201213F
:10598000184600F0C7F9FFF737FCFFF745FD624AFC
:10599000079B53676148FFF7ABFD03461846FFF7C7
:1059A0004DFBFEF7BDFF029000210298FFF746FC79
:1059B000FFF734FDABE0049B002B01D0049B00E01B
:1059C000574B0493049B002B01D0049B00E0554BE4
:1059D0000493049B002B01D0049B00E0524B0493E2
:1059E0009DF80330013B092B00F28E8001A252F892
:1059F00023F000BF1D5A0000235A0000335A000054
:105A0000095B0000095B0000435A0000095B0000CD
:105A1000095B0000095B00005F5A0000002305934A
:105A200020E001220121002000F074F902230593F7
:105A300018E001220121012000F06CF901230593F7
:105A400010E0FEF76DFF03461846FFF7F7FA012254
:105A500000213648FFF798FA0323059302E0042358
:105A6000059300BF049B059A1A6050E09DF803302F
:105A7000072B02D0092B04D049E0274B00221A67DC
:105A800003E0254B01221A6700BF40E09DF8033078
:105A9000013B072B3AD801A252F823F0BD5A00006F
:105AA0000D5B00000D5B0000D35A00000D5B000091
:105AB0000D5B0000C35A0000E35A00000023059369
:105AC00012E001220121042000F024F901230593B2
:105AD0000AE001220121022000F01CF902230593B3
